:100000000C942A000C9434000C9434000C943400AA
:100010000C9434000C9434000C9434000C94340090
:100020000C9434000C9434000C9434000C94340080
:100030000C9434000C9434000C9434000C94340070
:100040000C9434000C9434000C9434000C94340060
:100050000C94340011241FBECFE5D4E0DEBFCDBF29
:100060000E94BD000C94DC000C940000DF93CF9341
:1000700000D0CDB7DEB71A821982A1E3B0E0E1E388
:10008000F0E08081807F8C93A2E3B0E0E2E3F0E0D7
:10009000808183608C931A826BC0198262C0A1E355
:1000A000B0E0E1E3F0E08081807F8C93A1E3B0E0F9
:1000B000E1E3F0E08081482F8981882F90E09C0166
:1000C0002E5F3F4F81E090E002C0880F991F2A9574
:1000D000E2F7842B8C93A1E3B0E0E1E3F0E08081D0
:1000E000982FE1E3F0E080818C7F892B8C93A2E351
:1000F000B0E0E2E3F0E08081482F8981882F90E032
:100100009C012E5F3F4F81E090E002C0880F991F55
:100110002A95E2F7809584238C93E0E3F0E08081D8
:10012000282F30E08A81882F90E0A90102C05595E0
:1001300047958A95E2F7CA0181709070009771F433
:100140008A81882F90E0880F991F982F8981890FC5
:100150008F5F0F900F90CF91DF91089589818F5F0E
:1001600089838981823008F49ACF8A818F5F8A835C
:100170008A81823008F491CF8ECFDF93CF930F9294
:10018000CDB7DEB71982E4E3F0E01082A1E3B0E07E
:10019000E1E3F0E0808180688C93A2E3B0E0E2E3E9
:1001A000F0E080818F778C930E9436008983E5E3AD
:0C01B000F0E089818083F8CFF894FFCF45
:00000001FF
