:100000000C942A000C943F000C943F000C943F0089
:100010000C943F000C943F000C943F000C943F0064
:100020000C943F000C943F000C943F000C943F0054
:100030000C943F000C943F000C943F000C943F0044
:100040000C943F000C943F000C943F000C943F0034
:100050000C943F0011241FBECFE5D4E0DEBFCDBF1E
:1000600010E0A0E6B0E0E6E6F2E002C005900D92F6
:10007000AE37B107D9F70E9441000C9431010C94BE
:100080000000DF93CF9300D000D000D0CDB7DEB713
:1000900083E08A831B821C8283E08D83CE010296DB
:1000A0000E9465000E94D5008983EAE3F0E0808128
:1000B000EAE3F0E08FEF8083EBE3F0E08981808377
:1000C00080E690E00E94E400FFCFDF93CF9300D062
:1000D00000D0CDB7DEB79C838B838CE090E09A8311
:1000E0008983ABE2B0E0EBE2F0E0808182608C9348
:1000F000AAE2B0E0EB81FC8183818370880F880FD6
:10010000880F8C93A0E4B0E0EB81FC818181882F83
:1001100090E08370907082959295907F9827807F71
:100120009827282F2068EB81FC818281882F90E01E
:1001300081709070880F991F880F991F880F991FE1
:10014000282BEB81FC818081882F90E08370907058
:10015000880F991F822B8C93E9E2F0E089818083DC
:10016000E0E4F0E089819A81892F992780830F90BC
:100170000F900F900F90CF91DF910895DF93CF9361
:100180000F92CDB7DEB78983EBE2F0E08081882F54
:1001900090E0807290700097B9F3ECE2F0E0898112
:1001A00080830F90CF91DF910895DF93CF93CDB7E8
:1001B000DEB7EBE2F0E080818823DCF7ECE2F0E0F0
:1001C0008081CF91DF910895DF93CF9300D0CDB799
:1001D000DEB79A8389830BC0E981FA812081898106
:1001E0009A8101969A838983822F0E94BE00E981B9
:1001F000FA818081882381F783E20E94BE000F90FC
:100200000F90CF91DF910895DF93CF9300D000D06E
:10021000CDB7DEB79C838B8319820DC08981282FCF
:1002200030E08B819C81FC01E20FF31F8A81808387
:1002300089818F5F89830E94D5008A838A81833276
:1002400069F78981282F30E08B819C81FC01E20FC6
:10025000F31F10820F900F900F900F90CF91DF91AE
:060260000895F894FFCFA1
:100266004920616D20616E6F74686572204D696307
:0E027600726F204C696B6520796F7521000056
:00000001FF
